{
  "_format": "hh-sol-artifact-1",
  "contractName": "Shop",
  "sourceName": "contracts/Shop.sol",
  "abi": [
    {
      "anonymous": false,
      "inputs": [
        {
          "indexed": true,
          "internalType": "address",
          "name": "account",
          "type": "address"
        },
        {
          "indexed": true,
          "internalType": "address",
          "name": "operator",
          "type": "address"
        },
        {
          "indexed": false,
          "internalType": "bool",
          "name": "approved",
          "type": "bool"
        }
      ],
      "name": "ApprovalForAll",
      "type": "event"
    },
    {
      "anonymous": false,
      "inputs": [
        {
          "indexed": false,
          "internalType": "uint256",
          "name": "itemId",
          "type": "uint256"
        },
        {
          "indexed": true,
          "internalType": "address",
          "name": "nft",
          "type": "address"
        },
        {
          "indexed": false,
          "internalType": "uint256",
          "name": "tokenId",
          "type": "uint256"
        },
        {
          "indexed": false,
          "internalType": "uint256",
          "name": "price",
          "type": "uint256"
        },
        {
          "indexed": true,
          "internalType": "address",
          "name": "seller",
          "type": "address"
        },
        {
          "indexed": true,
          "internalType": "address",
          "name": "buyer",
          "type": "address"
        }
      ],
      "name": "Bought",
      "type": "event"
    },
    {
      "anonymous": false,
      "inputs": [
        {
          "indexed": false,
          "internalType": "uint256",
          "name": "itemId",
          "type": "uint256"
        },
        {
          "indexed": true,
          "internalType": "address",
          "name": "nft",
          "type": "address"
        },
        {
          "indexed": false,
          "internalType": "uint256",
          "name": "tokenId",
          "type": "uint256"
        },
        {
          "indexed": false,
          "internalType": "uint256",
          "name": "price",
          "type": "uint256"
        },
        {
          "indexed": true,
          "internalType": "address",
          "name": "seller",
          "type": "address"
        }
      ],
      "name": "Offered",
      "type": "event"
    },
    {
      "anonymous": false,
      "inputs": [
        {
          "indexed": true,
          "internalType": "address",
          "name": "previousOwner",
          "type": "address"
        },
        {
          "indexed": true,
          "internalType": "address",
          "name": "newOwner",
          "type": "address"
        }
      ],
      "name": "OwnershipTransferred",
      "type": "event"
    },
    {
      "anonymous": false,
      "inputs": [
        {
          "indexed": true,
          "internalType": "address",
          "name": "operator",
          "type": "address"
        },
        {
          "indexed": true,
          "internalType": "address",
          "name": "from",
          "type": "address"
        },
        {
          "indexed": true,
          "internalType": "address",
          "name": "to",
          "type": "address"
        },
        {
          "indexed": false,
          "internalType": "uint256[]",
          "name": "ids",
          "type": "uint256[]"
        },
        {
          "indexed": false,
          "internalType": "uint256[]",
          "name": "values",
          "type": "uint256[]"
        }
      ],
      "name": "TransferBatch",
      "type": "event"
    },
    {
      "anonymous": false,
      "inputs": [
        {
          "indexed": true,
          "internalType": "address",
          "name": "operator",
          "type": "address"
        },
        {
          "indexed": true,
          "internalType": "address",
          "name": "from",
          "type": "address"
        },
        {
          "indexed": true,
          "internalType": "address",
          "name": "to",
          "type": "address"
        },
        {
          "indexed": false,
          "internalType": "uint256",
          "name": "id",
          "type": "uint256"
        },
        {
          "indexed": false,
          "internalType": "uint256",
          "name": "value",
          "type": "uint256"
        }
      ],
      "name": "TransferSingle",
      "type": "event"
    },
    {
      "anonymous": false,
      "inputs": [
        {
          "indexed": false,
          "internalType": "string",
          "name": "value",
          "type": "string"
        },
        {
          "indexed": true,
          "internalType": "uint256",
          "name": "id",
          "type": "uint256"
        }
      ],
      "name": "URI",
      "type": "event"
    },
    {
      "inputs": [
        {
          "internalType": "address",
          "name": "account",
          "type": "address"
        },
        {
          "internalType": "uint256",
          "name": "id",
          "type": "uint256"
        }
      ],
      "name": "balanceOf",
      "outputs": [
        {
          "internalType": "uint256",
          "name": "",
          "type": "uint256"
        }
      ],
      "stateMutability": "view",
      "type": "function"
    },
    {
      "inputs": [
        {
          "internalType": "address[]",
          "name": "accounts",
          "type": "address[]"
        },
        {
          "internalType": "uint256[]",
          "name": "ids",
          "type": "uint256[]"
        }
      ],
      "name": "balanceOfBatch",
      "outputs": [
        {
          "internalType": "uint256[]",
          "name": "",
          "type": "uint256[]"
        }
      ],
      "stateMutability": "view",
      "type": "function"
    },
    {
      "inputs": [
        {
          "internalType": "address",
          "name": "account",
          "type": "address"
        },
        {
          "internalType": "uint256",
          "name": "id",
          "type": "uint256"
        },
        {
          "internalType": "uint256",
          "name": "value",
          "type": "uint256"
        }
      ],
      "name": "burn",
      "outputs": [],
      "stateMutability": "nonpayable",
      "type": "function"
    },
    {
      "inputs": [
        {
          "internalType": "address",
          "name": "account",
          "type": "address"
        },
        {
          "internalType": "uint256[]",
          "name": "ids",
          "type": "uint256[]"
        },
        {
          "internalType": "uint256[]",
          "name": "values",
          "type": "uint256[]"
        }
      ],
      "name": "burnBatch",
      "outputs": [],
      "stateMutability": "nonpayable",
      "type": "function"
    },
    {
      "inputs": [
        {
          "internalType": "uint256",
          "name": "_itemId",
          "type": "uint256"
        }
      ],
      "name": "getPrice",
      "outputs": [
        {
          "internalType": "uint256",
          "name": "",
          "type": "uint256"
        }
      ],
      "stateMutability": "view",
      "type": "function"
    },
    {
      "inputs": [
        {
          "internalType": "address",
          "name": "account",
          "type": "address"
        },
        {
          "internalType": "address",
          "name": "operator",
          "type": "address"
        }
      ],
      "name": "isApprovedForAll",
      "outputs": [
        {
          "internalType": "bool",
          "name": "",
          "type": "bool"
        }
      ],
      "stateMutability": "view",
      "type": "function"
    },
    {
      "inputs": [],
      "name": "itemCount",
      "outputs": [
        {
          "internalType": "uint256",
          "name": "",
          "type": "uint256"
        }
      ],
      "stateMutability": "view",
      "type": "function"
    },
    {
      "inputs": [
        {
          "internalType": "uint256",
          "name": "",
          "type": "uint256"
        }
      ],
      "name": "items",
      "outputs": [
        {
          "internalType": "uint256",
          "name": "itemId",
          "type": "uint256"
        },
        {
          "internalType": "contract IERC1155",
          "name": "nft",
          "type": "address"
        },
        {
          "internalType": "uint256",
          "name": "tokenId",
          "type": "uint256"
        },
        {
          "internalType": "string",
          "name": "collection",
          "type": "string"
        },
        {
          "internalType": "uint256",
          "name": "price",
          "type": "uint256"
        },
        {
          "internalType": "address payable",
          "name": "seller",
          "type": "address"
        },
        {
          "internalType": "address",
          "name": "owner",
          "type": "address"
        },
        {
          "internalType": "bool",
          "name": "sold",
          "type": "bool"
        }
      ],
      "stateMutability": "view",
      "type": "function"
    },
    {
      "inputs": [
        {
          "internalType": "contract IERC1155",
          "name": "_nft",
          "type": "address"
        },
        {
          "internalType": "uint256",
          "name": "_tokenId",
          "type": "uint256"
        },
        {
          "internalType": "string",
          "name": "_collection",
          "type": "string"
        },
        {
          "internalType": "uint256",
          "name": "_price",
          "type": "uint256"
        }
      ],
      "name": "makeItem",
      "outputs": [],
      "stateMutability": "nonpayable",
      "type": "function"
    },
    {
      "inputs": [
        {
          "internalType": "address",
          "name": "to",
          "type": "address"
        },
        {
          "internalType": "uint256",
          "name": "id",
          "type": "uint256"
        },
        {
          "internalType": "uint256",
          "name": "amount",
          "type": "uint256"
        }
      ],
      "name": "mint",
      "outputs": [],
      "stateMutability": "nonpayable",
      "type": "function"
    },
    {
      "inputs": [
        {
          "internalType": "address",
          "name": "to",
          "type": "address"
        },
        {
          "internalType": "uint256[]",
          "name": "ids",
          "type": "uint256[]"
        },
        {
          "internalType": "uint256[]",
          "name": "amounts",
          "type": "uint256[]"
        }
      ],
      "name": "mintBatch",
      "outputs": [],
      "stateMutability": "nonpayable",
      "type": "function"
    },
    {
      "inputs": [],
      "name": "name",
      "outputs": [
        {
          "internalType": "string",
          "name": "",
          "type": "string"
        }
      ],
      "stateMutability": "view",
      "type": "function"
    },
    {
      "inputs": [
        {
          "internalType": "address",
          "name": "",
          "type": "address"
        },
        {
          "internalType": "address",
          "name": "",
          "type": "address"
        },
        {
          "internalType": "uint256[]",
          "name": "",
          "type": "uint256[]"
        },
        {
          "internalType": "uint256[]",
          "name": "",
          "type": "uint256[]"
        },
        {
          "internalType": "bytes",
          "name": "",
          "type": "bytes"
        }
      ],
      "name": "onERC1155BatchReceived",
      "outputs": [
        {
          "internalType": "bytes4",
          "name": "",
          "type": "bytes4"
        }
      ],
      "stateMutability": "nonpayable",
      "type": "function"
    },
    {
      "inputs": [
        {
          "internalType": "address",
          "name": "",
          "type": "address"
        },
        {
          "internalType": "address",
          "name": "",
          "type": "address"
        },
        {
          "internalType": "uint256",
          "name": "",
          "type": "uint256"
        },
        {
          "internalType": "uint256",
          "name": "",
          "type": "uint256"
        },
        {
          "internalType": "bytes",
          "name": "",
          "type": "bytes"
        }
      ],
      "name": "onERC1155Received",
      "outputs": [
        {
          "internalType": "bytes4",
          "name": "",
          "type": "bytes4"
        }
      ],
      "stateMutability": "nonpayable",
      "type": "function"
    },
    {
      "inputs": [],
      "name": "owner",
      "outputs": [
        {
          "internalType": "address",
          "name": "",
          "type": "address"
        }
      ],
      "stateMutability": "view",
      "type": "function"
    },
    {
      "inputs": [
        {
          "internalType": "uint256",
          "name": "_itemId",
          "type": "uint256"
        }
      ],
      "name": "purchaseItem",
      "outputs": [],
      "stateMutability": "payable",
      "type": "function"
    },
    {
      "inputs": [],
      "name": "renounceOwnership",
      "outputs": [],
      "stateMutability": "nonpayable",
      "type": "function"
    },
    {
      "inputs": [
        {
          "internalType": "address",
          "name": "from",
          "type": "address"
        },
        {
          "internalType": "address",
          "name": "to",
          "type": "address"
        },
        {
          "internalType": "uint256[]",
          "name": "ids",
          "type": "uint256[]"
        },
        {
          "internalType": "uint256[]",
          "name": "amounts",
          "type": "uint256[]"
        },
        {
          "internalType": "bytes",
          "name": "data",
          "type": "bytes"
        }
      ],
      "name": "safeBatchTransferFrom",
      "outputs": [],
      "stateMutability": "nonpayable",
      "type": "function"
    },
    {
      "inputs": [
        {
          "internalType": "address",
          "name": "from",
          "type": "address"
        },
        {
          "internalType": "address",
          "name": "to",
          "type": "address"
        },
        {
          "internalType": "uint256",
          "name": "id",
          "type": "uint256"
        },
        {
          "internalType": "uint256",
          "name": "amount",
          "type": "uint256"
        },
        {
          "internalType": "bytes",
          "name": "data",
          "type": "bytes"
        }
      ],
      "name": "safeTransferFrom",
      "outputs": [],
      "stateMutability": "nonpayable",
      "type": "function"
    },
    {
      "inputs": [
        {
          "internalType": "address",
          "name": "operator",
          "type": "address"
        },
        {
          "internalType": "bool",
          "name": "approved",
          "type": "bool"
        }
      ],
      "name": "setApprovalForAll",
      "outputs": [],
      "stateMutability": "nonpayable",
      "type": "function"
    },
    {
      "inputs": [
        {
          "internalType": "string",
          "name": "newuri",
          "type": "string"
        }
      ],
      "name": "setURI",
      "outputs": [],
      "stateMutability": "nonpayable",
      "type": "function"
    },
    {
      "inputs": [
        {
          "internalType": "bytes4",
          "name": "interfaceId",
          "type": "bytes4"
        }
      ],
      "name": "supportsInterface",
      "outputs": [
        {
          "internalType": "bool",
          "name": "",
          "type": "bool"
        }
      ],
      "stateMutability": "view",
      "type": "function"
    },
    {
      "inputs": [],
      "name": "symbol",
      "outputs": [
        {
          "internalType": "string",
          "name": "",
          "type": "string"
        }
      ],
      "stateMutability": "view",
      "type": "function"
    },
    {
      "inputs": [
        {
          "internalType": "address",
          "name": "newOwner",
          "type": "address"
        }
      ],
      "name": "transferOwnership",
      "outputs": [],
      "stateMutability": "nonpayable",
      "type": "function"
    },
    {
      "inputs": [
        {
          "internalType": "uint256",
          "name": "tokenId",
          "type": "uint256"
        }
      ],
      "name": "uri",
      "outputs": [
        {
          "internalType": "string",
          "name": "",
          "type": "string"
        }
      ],
      "stateMutability": "pure",
      "type": "function"
    }
  ],
  "bytecode": "0x60806040523480156200001157600080fd5b5060408051602081019091526000808252600190556200003181620000a2565b506200003d33620000bb565b604080518082019091526007808252662a3937ba3a32b960c91b60209092019182526200006d916005916200010d565b50604080518082019091526004808252632a292a2960e11b60209092019182526200009b916006916200010d565b50620001f0565b8051620000b79060039060208401906200010d565b5050565b600480546001600160a01b038381166001600160a01b0319831681179093556040519116919082907f8be0079c531659141344cd1fd0a4f28419497f9722a3daafe3b4186f6b6457e090600090a35050565b8280546200011b90620001b3565b90600052602060002090601f0160209004810192826200013f57600085556200018a565b82601f106200015a57805160ff19168380011785556200018a565b828001600101855582156200018a579182015b828111156200018a5782518255916020019190600101906200016d565b50620001989291506200019c565b5090565b5b808211156200019857600081556001016200019d565b600181811c90821680620001c857607f821691505b60208210811415620001ea57634e487b7160e01b600052602260045260246000fd5b50919050565b612ace80620002006000396000f3fe6080604052600436106101655760003560e01c80638da5cb5b116100d1578063d81d0a151161008a578063f23a6e6111610064578063f23a6e611461048b578063f242432a146104b7578063f2fde38b146104d7578063f5298aca146104f757600080fd5b8063d81d0a15146103f2578063e757223014610412578063e985e9c51461044257600080fd5b80638da5cb5b1461030957806395d89b4114610331578063a22cb46514610346578063bc197c8114610366578063bfb231d2146103ab578063d38ea5bf146103df57600080fd5b80632eb2c2d6116101235780632eb2c2d6146102515780633c28368c146102715780634e1273f4146102915780636b20c454146102be5780636bfb0d01146102de578063715018a6146102f457600080fd5b8062fdd58e1461016a57806301ffc9a71461019d57806302fe5305146101cd57806306fdde03146101ef5780630e89341c14610211578063156e29f614610231575b600080fd5b34801561017657600080fd5b5061018a61018536600461219b565b610517565b6040519081526020015b60405180910390f35b3480156101a957600080fd5b506101bd6101b83660046122c7565b6105b0565b6040519015158152602001610194565b3480156101d957600080fd5b506101ed6101e836600461235e565b6105c1565b005b3480156101fb57600080fd5b506102046105f7565b6040516101949190612588565b34801561021d57600080fd5b5061020461022c366004612391565b610685565b34801561023d57600080fd5b506101ed61024c3660046121c6565b6106b6565b34801561025d57600080fd5b506101ed61026c366004611fe6565b610700565b34801561027d57600080fd5b506101ed61028c3660046122ff565b610797565b34801561029d57600080fd5b506102b16102ac3660046121fa565b6109d3565b6040516101949190612547565b3480156102ca57600080fd5b506101ed6102d93660046120f7565b610b35565b3480156102ea57600080fd5b5061018a60075481565b34801561030057600080fd5b506101ed610b78565b34801561031557600080fd5b506004546040516001600160a01b039091168152602001610194565b34801561033d57600080fd5b50610204610bae565b34801561035257600080fd5b506101ed61036136600461216a565b610bbb565b34801561037257600080fd5b50610392610381366004611fe6565b63bc197c8160e01b95945050505050565b6040516001600160e01b03199091168152602001610194565b3480156103b757600080fd5b506103cb6103c6366004612391565b610bca565b604051610194989796959493929190612800565b6101ed6103ed366004612391565b610cb3565b3480156103fe57600080fd5b506101ed61040d3660046120f7565b610f60565b34801561041e57600080fd5b5061018a61042d366004612391565b60009081526008602052604090206004015490565b34801561044e57600080fd5b506101bd61045d366004611fae565b6001600160a01b03918216600090815260026020908152604080832093909416825291909152205460ff1690565b34801561049757600080fd5b506103926104a6366004612090565b63f23a6e6160e01b95945050505050565b3480156104c357600080fd5b506101ed6104d2366004612090565b610fa5565b3480156104e357600080fd5b506101ed6104f2366004611f8b565b610fea565b34801561050357600080fd5b506101ed6105123660046121c6565b611082565b60006001600160a01b0383166105885760405162461bcd60e51b815260206004820152602b60248201527f455243313135353a2062616c616e636520717565727920666f7220746865207a60448201526a65726f206164647265737360a81b60648201526084015b60405180910390fd5b5060009081526001602090815260408083206001600160a01b03949094168352929052205490565b60006105bb826110c5565b92915050565b6004546001600160a01b031633146105eb5760405162461bcd60e51b815260040161057f90612742565b6105f481611105565b50565b60058054610604906128f2565b80601f0160208091040260200160405190810160405280929190818152602001828054610630906128f2565b801561067d5780601f106106525761010080835404028352916020019161067d565b820191906000526020600020905b81548152906001019060200180831161066057829003601f168201915b505050505081565b606061069082611118565b6040516020016106a0919061240f565b6040516020818303038152906040529050919050565b6004546001600160a01b031633146106e05760405162461bcd60e51b815260040161057f90612742565b6106fb8383836040518060200160405280600081525061123a565b505050565b6001600160a01b03851633148061071c575061071c853361045d565b6107835760405162461bcd60e51b815260206004820152603260248201527f455243313135353a207472616e736665722063616c6c6572206973206e6f74206044820152711bdddb995c881b9bdc88185c1c1c9bdd995960721b606482015260840161057f565b6107908585858585611316565b5050505050565b6004546001600160a01b031633146107c15760405162461bcd60e51b815260040161057f90612742565b600081116108115760405162461bcd60e51b815260206004820152601f60248201527f5072696365206d7573742062652067726561746572207468616e207a65726f00604482015260640161057f565b600780549060006108218361295a565b9091555050604051637921219560e11b81526001600160a01b0385169063f242432a90610859903390309088906001906004016124ca565b600060405180830381600087803b15801561087357600080fd5b505af1158015610887573d6000803e3d6000fd5b505060408051610100810182526007548082526001600160a01b0389811660208085019182528486018b8152606086018b8152608087018b90523360a0880181905260c0880152600060e0880181905295865260088352969094208551815591516001830180546001600160a01b03191691909416179092559151600283015592518051929550909350610922926003850192910190611e0f565b506080820151600482015560a08201516005820180546001600160a01b039283166001600160a01b031990911617905560c08301516006909201805460e0909401511515600160a01b026001600160a81b0319909416928216929092179290921790556007546040805191825260208201869052810183905233918616907f655a0cf9c8db81512be9a76dc1c5ae5380b8816ce6ad659cd61b715e2999d59a9060600160405180910390a350505050565b60608151835114610a385760405162461bcd60e51b815260206004820152602960248201527f455243313135353a206163636f756e747320616e6420696473206c656e677468604482015268040dad2e6dac2e8c6d60bb1b606482015260840161057f565b6000835167ffffffffffffffff811115610a6257634e487b7160e01b600052604160045260246000fd5b604051908082528060200260200182016040528015610a8b578160200160208202803683370190505b50905060005b8451811015610b2d57610af2858281518110610abd57634e487b7160e01b600052603260045260246000fd5b6020026020010151858381518110610ae557634e487b7160e01b600052603260045260246000fd5b6020026020010151610517565b828281518110610b1257634e487b7160e01b600052603260045260246000fd5b6020908102919091010152610b268161295a565b9050610a91565b509392505050565b6001600160a01b038316331480610b515750610b51833361045d565b610b6d5760405162461bcd60e51b815260040161057f90612627565b6106fb8383836114d1565b6004546001600160a01b03163314610ba25760405162461bcd60e51b815260040161057f90612742565b610bac600061167c565b565b60068054610604906128f2565b610bc63383836116ce565b5050565b600860205260009081526040902080546001820154600283015460038401805493946001600160a01b0390931693919291610c04906128f2565b80601f0160208091040260200160405190810160405280929190818152602001828054610c30906128f2565b8015610c7d5780601f10610c5257610100808354040283529160200191610c7d565b820191906000526020600020905b815481529060010190602001808311610c6057829003601f168201915b5050505060048301546005840154600690940154929390926001600160a01b03918216925090811690600160a01b900460ff1688565b60026000541415610d065760405162461bcd60e51b815260206004820152601f60248201527f5265656e7472616e637947756172643a207265656e7472616e742063616c6c00604482015260640161057f565b600260009081558181526008602052604090208115801590610d2a57506007548211155b610d6b5760405162461bcd60e51b81526020600482015260126024820152711a5d195b48191bd95cdb89dd08195e1a5cdd60721b604482015260640161057f565b8060040154341015610dcb5760405162461bcd60e51b8152602060048201526024808201527f6e6f7420656e6f75676820657468657220746f20636f766572206974656d20706044820152637269636560e01b606482015260840161057f565b6006810154600160a01b900460ff1615610e1b5760405162461bcd60e51b81526020600482015260116024820152701a5d195b48185b1c9958591e481cdbdb19607a1b604482015260640161057f565b600581015460048201546040516001600160a01b039092169181156108fc0291906000818181858888f19350505050158015610e5b573d6000803e3d6000fd5b5060068101805460ff60a01b1916600160a01b1790556001818101546002830154604051637921219560e11b81526001600160a01b039092169263f242432a92610eab92309233926004016124ca565b600060405180830381600087803b158015610ec557600080fd5b505af1158015610ed9573d6000803e3d6000fd5b505050506006810180546001600160a01b0319163390811790915560058201546001830154600284015460048501546040805188815260208101939093528201526001600160a01b0392831692909116907f8b4c9c8a607d67b321582dd8461041b1dc2ceeca70c8b7f37f8e02095cf2e76d9060600160405180910390a450506001600055565b6004546001600160a01b03163314610f8a5760405162461bcd60e51b815260040161057f90612742565b6106fb838383604051806020016040528060008152506117af565b6001600160a01b038516331480610fc15750610fc1853361045d565b610fdd5760405162461bcd60e51b815260040161057f90612627565b6107908585858585611917565b6004546001600160a01b031633146110145760405162461bcd60e51b815260040161057f90612742565b6001600160a01b0381166110795760405162461bcd60e51b815260206004820152602660248201527f4f776e61626c653a206e6577206f776e657220697320746865207a65726f206160448201526564647265737360d01b606482015260840161057f565b6105f48161167c565b6001600160a01b03831633148061109e575061109e833361045d565b6110ba5760405162461bcd60e51b815260040161057f90612627565b6106fb838383611a45565b60006001600160e01b03198216636cdb3d1360e11b14806110f657506001600160e01b031982166303a24d0760e21b145b806105bb57506105bb82611b4c565b8051610bc6906003906020840190611e0f565b60608161113c5750506040805180820190915260018152600360fc1b602082015290565b8160005b811561116657806111508161295a565b915061115f9050600a8361289b565b9150611140565b60008167ffffffffffffffff81111561118f57634e487b7160e01b600052604160045260246000fd5b6040519080825280601f01601f1916602001820160405280156111b9576020820181803683370190505b5090505b8415611232576111ce6001836128af565b91506111db600a86612975565b6111e6906030612883565b60f81b81838151811061120957634e487b7160e01b600052603260045260246000fd5b60200101906001600160f81b031916908160001a90535061122b600a8661289b565b94506111bd565b949350505050565b6001600160a01b0384166112605760405162461bcd60e51b815260040161057f906127bf565b33600061126c85611b81565b9050600061127985611b81565b905060008681526001602090815260408083206001600160a01b038b168452909152812080548792906112ad908490612883565b909155505060408051878152602081018790526001600160a01b03808a1692600092918716917fc3d58168c5ae7397731d063d5bbf3d657854427343f4c083240f7aacaa2d0f62910160405180910390a461130d83600089898989611bda565b50505050505050565b81518351146113375760405162461bcd60e51b815260040161057f90612777565b6001600160a01b03841661135d5760405162461bcd60e51b815260040161057f90612670565b3360005b845181101561146357600085828151811061138c57634e487b7160e01b600052603260045260246000fd5b6020026020010151905060008583815181106113b857634e487b7160e01b600052603260045260246000fd5b60209081029190910181015160008481526001835260408082206001600160a01b038e1683529093529190912054909150818110156114095760405162461bcd60e51b815260040161057f906126f8565b60008381526001602090815260408083206001600160a01b038e8116855292528083208585039055908b16825281208054849290611448908490612883565b925050819055505050508061145c9061295a565b9050611361565b50846001600160a01b0316866001600160a01b0316826001600160a01b03167f4a39dc06d4c0dbc64b70af90fd698a233a518aa5d07e595d983b8c0526c8f7fb87876040516114b392919061255a565b60405180910390a46114c9818787878787611d45565b505050505050565b6001600160a01b0383166114f75760405162461bcd60e51b815260040161057f906126b5565b80518251146115185760405162461bcd60e51b815260040161057f90612777565b604080516020810190915260009081905233905b835181101561160d57600084828151811061155757634e487b7160e01b600052603260045260246000fd5b60200260200101519050600084838151811061158357634e487b7160e01b600052603260045260246000fd5b60209081029190910181015160008481526001835260408082206001600160a01b038c1683529093529190912054909150818110156115d45760405162461bcd60e51b815260040161057f906125e3565b60009283526001602090815260408085206001600160a01b038b16865290915290922091039055806116058161295a565b91505061152c565b5060006001600160a01b0316846001600160a01b0316826001600160a01b03167f4a39dc06d4c0dbc64b70af90fd698a233a518aa5d07e595d983b8c0526c8f7fb868660405161165e92919061255a565b60405180910390a46040805160208101909152600090525b50505050565b600480546001600160a01b038381166001600160a01b0319831681179093556040519116919082907f8be0079c531659141344cd1fd0a4f28419497f9722a3daafe3b4186f6b6457e090600090a35050565b816001600160a01b0316836001600160a01b031614156117425760405162461bcd60e51b815260206004820152602960248201527f455243313135353a2073657474696e6720617070726f76616c20737461747573604482015268103337b91039b2b63360b91b606482015260840161057f565b6001600160a01b03838116600081815260026020908152604080832094871680845294825291829020805460ff191686151590811790915591519182527f17307eab39ab6107e8899845ad3d59bd9653f200f220920489ca2b5937696c31910160405180910390a3505050565b6001600160a01b0384166117d55760405162461bcd60e51b815260040161057f906127bf565b81518351146117f65760405162461bcd60e51b815260040161057f90612777565b3360005b84518110156118af5783818151811061182357634e487b7160e01b600052603260045260246000fd5b60200260200101516001600087848151811061184f57634e487b7160e01b600052603260045260246000fd5b602002602001015181526020019081526020016000206000886001600160a01b03166001600160a01b0316815260200190815260200160002060008282546118979190612883565b909155508190506118a78161295a565b9150506117fa565b50846001600160a01b031660006001600160a01b0316826001600160a01b03167f4a39dc06d4c0dbc64b70af90fd698a233a518aa5d07e595d983b8c0526c8f7fb878760405161190092919061255a565b60405180910390a461079081600087878787611d45565b6001600160a01b03841661193d5760405162461bcd60e51b815260040161057f90612670565b33600061194985611b81565b9050600061195685611b81565b905060008681526001602090815260408083206001600160a01b038c1684529091529020548581101561199b5760405162461bcd60e51b815260040161057f906126f8565b60008781526001602090815260408083206001600160a01b038d8116855292528083208985039055908a168252812080548892906119da908490612883565b909155505060408051888152602081018890526001600160a01b03808b16928c821692918816917fc3d58168c5ae7397731d063d5bbf3d657854427343f4c083240f7aacaa2d0f62910160405180910390a4611a3a848a8a8a8a8a611bda565b505050505050505050565b6001600160a01b038316611a6b5760405162461bcd60e51b815260040161057f906126b5565b336000611a7784611b81565b90506000611a8484611b81565b6040805160208082018352600091829052888252600181528282206001600160a01b038b1683529052205490915084811015611ad25760405162461bcd60e51b815260040161057f906125e3565b60008681526001602090815260408083206001600160a01b038b81168086529184528285208a8703905582518b81529384018a90529092908816917fc3d58168c5ae7397731d063d5bbf3d657854427343f4c083240f7aacaa2d0f62910160405180910390a460408051602081019091526000905261130d565b60006001600160e01b03198216630271189760e51b14806105bb57506301ffc9a760e01b6001600160e01b03198316146105bb565b60408051600180825281830190925260609160009190602080830190803683370190505090508281600081518110611bc957634e487b7160e01b600052603260045260246000fd5b602090810291909101015292915050565b6001600160a01b0384163b156114c95760405163f23a6e6160e01b81526001600160a01b0385169063f23a6e6190611c1e9089908990889088908890600401612502565b602060405180830381600087803b158015611c3857600080fd5b505af1925050508015611c68575060408051601f3d908101601f19168201909252611c65918101906122e3565b60015b611d1557611c746129cb565b806308c379a01415611cae5750611c896129e3565b80611c945750611cb0565b8060405162461bcd60e51b815260040161057f9190612588565b505b60405162461bcd60e51b815260206004820152603460248201527f455243313135353a207472616e7366657220746f206e6f6e20455243313135356044820152732932b1b2b4bb32b91034b6b83632b6b2b73a32b960611b606482015260840161057f565b6001600160e01b0319811663f23a6e6160e01b1461130d5760405162461bcd60e51b815260040161057f9061259b565b6001600160a01b0384163b156114c95760405163bc197c8160e01b81526001600160a01b0385169063bc197c8190611d89908990899088908890889060040161246c565b602060405180830381600087803b158015611da357600080fd5b505af1925050508015611dd3575060408051601f3d908101601f19168201909252611dd0918101906122e3565b60015b611ddf57611c746129cb565b6001600160e01b0319811663bc197c8160e01b1461130d5760405162461bcd60e51b815260040161057f9061259b565b828054611e1b906128f2565b90600052602060002090601f016020900481019282611e3d5760008555611e83565b82601f10611e5657805160ff1916838001178555611e83565b82800160010185558215611e83579182015b82811115611e83578251825591602001919060010190611e68565b50611e8f929150611e93565b5090565b5b80821115611e8f5760008155600101611e94565b600082601f830112611eb8578081fd5b81356020611ec58261285f565b604051611ed2828261292d565b8381528281019150858301600585901b87018401881015611ef1578586fd5b855b85811015611f0f57813584529284019290840190600101611ef3565b5090979650505050505050565b600082601f830112611f2c578081fd5b813567ffffffffffffffff811115611f4657611f466129b5565b604051611f5d601f8301601f19166020018261292d565b818152846020838601011115611f71578283fd5b816020850160208301379081016020019190915292915050565b600060208284031215611f9c578081fd5b8135611fa781612a6d565b9392505050565b60008060408385031215611fc0578081fd5b8235611fcb81612a6d565b91506020830135611fdb81612a6d565b809150509250929050565b600080600080600060a08688031215611ffd578081fd5b853561200881612a6d565b9450602086013561201881612a6d565b9350604086013567ffffffffffffffff80821115612034578283fd5b61204089838a01611ea8565b94506060880135915080821115612055578283fd5b61206189838a01611ea8565b93506080880135915080821115612076578283fd5b5061208388828901611f1c565b9150509295509295909350565b600080600080600060a086880312156120a7578081fd5b85356120b281612a6d565b945060208601356120c281612a6d565b93506040860135925060608601359150608086013567ffffffffffffffff8111156120eb578182fd5b61208388828901611f1c565b60008060006060848603121561210b578283fd5b833561211681612a6d565b9250602084013567ffffffffffffffff80821115612132578384fd5b61213e87838801611ea8565b93506040860135915080821115612153578283fd5b5061216086828701611ea8565b9150509250925092565b6000806040838503121561217c578182fd5b823561218781612a6d565b915060208301358015158114611fdb578182fd5b600080604083850312156121ad578182fd5b82356121b881612a6d565b946020939093013593505050565b6000806000606084860312156121da578081fd5b83356121e581612a6d565b95602085013595506040909401359392505050565b6000806040838503121561220c578182fd5b823567ffffffffffffffff80821115612223578384fd5b818501915085601f830112612236578384fd5b813560206122438261285f565b604051612250828261292d565b8381528281019150858301600585901b870184018b101561226f578889fd5b8896505b8487101561229a57803561228681612a6d565b835260019690960195918301918301612273565b50965050860135925050808211156122b0578283fd5b506122bd85828601611ea8565b9150509250929050565b6000602082840312156122d8578081fd5b8135611fa781612a82565b6000602082840312156122f4578081fd5b8151611fa781612a82565b60008060008060808587031215612314578182fd5b843561231f81612a6d565b935060208501359250604085013567ffffffffffffffff811115612341578283fd5b61234d87828801611f1c565b949793965093946060013593505050565b60006020828403121561236f578081fd5b813567ffffffffffffffff811115612385578182fd5b61123284828501611f1c565b6000602082840312156123a2578081fd5b5035919050565b6000815180845260208085019450808401835b838110156123d8578151875295820195908201906001016123bc565b509495945050505050565b600081518084526123fb8160208601602086016128c6565b601f01601f19169290920160200192915050565b7f516d5275464e6570536b6a535651504542666e4b526a634d634532363332343381526e4c4877744a4c3874656a533747782f60881b60208201526000825161245f81602f8501602087016128c6565b91909101602f0192915050565b6001600160a01b0386811682528516602082015260a060408201819052600090612498908301866123a9565b82810360608401526124aa81866123a9565b905082810360808401526124be81856123e3565b98975050505050505050565b6001600160a01b0394851681529290931660208301526040820152606081019190915260a06080820181905260009082015260c00190565b6001600160a01b03868116825285166020820152604081018490526060810183905260a06080820181905260009061253c908301846123e3565b979650505050505050565b602081526000611fa760208301846123a9565b60408152600061256d60408301856123a9565b828103602084015261257f81856123a9565b95945050505050565b602081526000611fa760208301846123e3565b60208082526028908201527f455243313135353a204552433131353552656365697665722072656a656374656040820152676420746f6b656e7360c01b606082015260800190565b60208082526024908201527f455243313135353a206275726e20616d6f756e7420657863656564732062616c604082015263616e636560e01b606082015260800190565b60208082526029908201527f455243313135353a2063616c6c6572206973206e6f74206f776e6572206e6f7260408201526808185c1c1c9bdd995960ba1b606082015260800190565b60208082526025908201527f455243313135353a207472616e7366657220746f20746865207a65726f206164604082015264647265737360d81b606082015260800190565b60208082526023908201527f455243313135353a206275726e2066726f6d20746865207a65726f206164647260408201526265737360e81b606082015260800190565b6020808252602a908201527f455243313135353a20696e73756666696369656e742062616c616e636520666f60408201526939103a3930b739b332b960b11b606082015260800190565b6020808252818101527f4f776e61626c653a2063616c6c6572206973206e6f7420746865206f776e6572604082015260600190565b60208082526028908201527f455243313135353a2069647320616e6420616d6f756e7473206c656e677468206040820152670dad2e6dac2e8c6d60c31b606082015260800190565b60208082526021908201527f455243313135353a206d696e7420746f20746865207a65726f206164647265736040820152607360f81b606082015260800190565b8881526001600160a01b03888116602083015260408201889052610100606083018190526000916128338483018a6123e3565b608085019890985295861660a084015250509190921660c082015290151560e090910152949350505050565b600067ffffffffffffffff821115612879576128796129b5565b5060051b60200190565b6000821982111561289657612896612989565b500190565b6000826128aa576128aa61299f565b500490565b6000828210156128c1576128c1612989565b500390565b60005b838110156128e15781810151838201526020016128c9565b838111156116765750506000910152565b600181811c9082168061290657607f821691505b6020821081141561292757634e487b7160e01b600052602260045260246000fd5b50919050565b601f8201601f1916810167ffffffffffffffff81118282101715612953576129536129b5565b6040525050565b600060001982141561296e5761296e612989565b5060010190565b6000826129845761298461299f565b500690565b634e487b7160e01b600052601160045260246000fd5b634e487b7160e01b600052601260045260246000fd5b634e487b7160e01b600052604160045260246000fd5b600060033d11156129e057600481823e5160e01c5b90565b600060443d10156129f15790565b6040516003193d81016004833e81513d67ffffffffffffffff8160248401118184111715612a2157505050505090565b8285019150815181811115612a395750505050505090565b843d8701016020828501011115612a535750505050505090565b612a626020828601018761292d565b509095945050505050565b6001600160a01b03811681146105f457600080fd5b6001600160e01b0319811681146105f457600080fdfea264697066735822122092c2f0507a59927e647a041bbb7f1274d41e131ef1490ebbc3a72a4317fb334464736f6c63430008040033",
  "linkReferences": {},
  "deployedLinkReferences": {}
}