{
  "_format": "hh-sol-artifact-1",
  "contractName": "Shop",
  "sourceName": "contracts/Shop.sol",
  "abi": [
    {
      "anonymous": false,
      "inputs": [
        {
          "indexed": true,
          "internalType": "address",
          "name": "account",
          "type": "address"
        },
        {
          "indexed": true,
          "internalType": "address",
          "name": "operator",
          "type": "address"
        },
        {
          "indexed": false,
          "internalType": "bool",
          "name": "approved",
          "type": "bool"
        }
      ],
      "name": "ApprovalForAll",
      "type": "event"
    },
    {
      "anonymous": false,
      "inputs": [
        {
          "indexed": false,
          "internalType": "uint256",
          "name": "itemId",
          "type": "uint256"
        },
        {
          "indexed": true,
          "internalType": "address",
          "name": "nft",
          "type": "address"
        },
        {
          "indexed": false,
          "internalType": "uint256",
          "name": "tokenId",
          "type": "uint256"
        },
        {
          "indexed": false,
          "internalType": "uint256",
          "name": "price",
          "type": "uint256"
        },
        {
          "indexed": true,
          "internalType": "address",
          "name": "seller",
          "type": "address"
        },
        {
          "indexed": true,
          "internalType": "address",
          "name": "buyer",
          "type": "address"
        }
      ],
      "name": "Bought",
      "type": "event"
    },
    {
      "anonymous": false,
      "inputs": [
        {
          "indexed": true,
          "internalType": "address",
          "name": "previousOwner",
          "type": "address"
        },
        {
          "indexed": true,
          "internalType": "address",
          "name": "newOwner",
          "type": "address"
        }
      ],
      "name": "OwnershipTransferred",
      "type": "event"
    },
    {
      "anonymous": false,
      "inputs": [
        {
          "indexed": true,
          "internalType": "address",
          "name": "operator",
          "type": "address"
        },
        {
          "indexed": true,
          "internalType": "address",
          "name": "from",
          "type": "address"
        },
        {
          "indexed": true,
          "internalType": "address",
          "name": "to",
          "type": "address"
        },
        {
          "indexed": false,
          "internalType": "uint256[]",
          "name": "ids",
          "type": "uint256[]"
        },
        {
          "indexed": false,
          "internalType": "uint256[]",
          "name": "values",
          "type": "uint256[]"
        }
      ],
      "name": "TransferBatch",
      "type": "event"
    },
    {
      "anonymous": false,
      "inputs": [
        {
          "indexed": true,
          "internalType": "address",
          "name": "operator",
          "type": "address"
        },
        {
          "indexed": true,
          "internalType": "address",
          "name": "from",
          "type": "address"
        },
        {
          "indexed": true,
          "internalType": "address",
          "name": "to",
          "type": "address"
        },
        {
          "indexed": false,
          "internalType": "uint256",
          "name": "id",
          "type": "uint256"
        },
        {
          "indexed": false,
          "internalType": "uint256",
          "name": "value",
          "type": "uint256"
        }
      ],
      "name": "TransferSingle",
      "type": "event"
    },
    {
      "anonymous": false,
      "inputs": [
        {
          "indexed": false,
          "internalType": "string",
          "name": "value",
          "type": "string"
        },
        {
          "indexed": true,
          "internalType": "uint256",
          "name": "id",
          "type": "uint256"
        }
      ],
      "name": "URI",
      "type": "event"
    },
    {
      "inputs": [
        {
          "internalType": "address",
          "name": "account",
          "type": "address"
        },
        {
          "internalType": "uint256",
          "name": "id",
          "type": "uint256"
        }
      ],
      "name": "balanceOf",
      "outputs": [
        {
          "internalType": "uint256",
          "name": "",
          "type": "uint256"
        }
      ],
      "stateMutability": "view",
      "type": "function"
    },
    {
      "inputs": [
        {
          "internalType": "address[]",
          "name": "accounts",
          "type": "address[]"
        },
        {
          "internalType": "uint256[]",
          "name": "ids",
          "type": "uint256[]"
        }
      ],
      "name": "balanceOfBatch",
      "outputs": [
        {
          "internalType": "uint256[]",
          "name": "",
          "type": "uint256[]"
        }
      ],
      "stateMutability": "view",
      "type": "function"
    },
    {
      "inputs": [
        {
          "internalType": "address",
          "name": "account",
          "type": "address"
        },
        {
          "internalType": "uint256",
          "name": "id",
          "type": "uint256"
        },
        {
          "internalType": "uint256",
          "name": "value",
          "type": "uint256"
        }
      ],
      "name": "burn",
      "outputs": [],
      "stateMutability": "nonpayable",
      "type": "function"
    },
    {
      "inputs": [
        {
          "internalType": "address",
          "name": "account",
          "type": "address"
        },
        {
          "internalType": "uint256[]",
          "name": "ids",
          "type": "uint256[]"
        },
        {
          "internalType": "uint256[]",
          "name": "values",
          "type": "uint256[]"
        }
      ],
      "name": "burnBatch",
      "outputs": [],
      "stateMutability": "nonpayable",
      "type": "function"
    },
    {
      "inputs": [
        {
          "internalType": "uint256",
          "name": "_itemId",
          "type": "uint256"
        }
      ],
      "name": "getPrice",
      "outputs": [
        {
          "internalType": "uint256",
          "name": "",
          "type": "uint256"
        }
      ],
      "stateMutability": "view",
      "type": "function"
    },
    {
      "inputs": [
        {
          "internalType": "address",
          "name": "account",
          "type": "address"
        },
        {
          "internalType": "address",
          "name": "operator",
          "type": "address"
        }
      ],
      "name": "isApprovedForAll",
      "outputs": [
        {
          "internalType": "bool",
          "name": "",
          "type": "bool"
        }
      ],
      "stateMutability": "view",
      "type": "function"
    },
    {
      "inputs": [],
      "name": "itemCount",
      "outputs": [
        {
          "internalType": "uint256",
          "name": "",
          "type": "uint256"
        }
      ],
      "stateMutability": "view",
      "type": "function"
    },
    {
      "inputs": [
        {
          "internalType": "uint256",
          "name": "",
          "type": "uint256"
        }
      ],
      "name": "items",
      "outputs": [
        {
          "internalType": "uint256",
          "name": "itemId",
          "type": "uint256"
        },
        {
          "internalType": "contract IERC1155",
          "name": "nft",
          "type": "address"
        },
        {
          "internalType": "uint256",
          "name": "tokenId",
          "type": "uint256"
        },
        {
          "internalType": "string",
          "name": "city",
          "type": "string"
        },
        {
          "internalType": "string",
          "name": "country",
          "type": "string"
        },
        {
          "internalType": "string",
          "name": "image",
          "type": "string"
        },
        {
          "internalType": "uint256",
          "name": "price",
          "type": "uint256"
        },
        {
          "internalType": "address payable",
          "name": "seller",
          "type": "address"
        },
        {
          "internalType": "address",
          "name": "owner",
          "type": "address"
        },
        {
          "internalType": "bool",
          "name": "sold",
          "type": "bool"
        }
      ],
      "stateMutability": "view",
      "type": "function"
    },
    {
      "inputs": [
        {
          "internalType": "contract IERC1155",
          "name": "_nft",
          "type": "address"
        },
        {
          "internalType": "uint256",
          "name": "_tokenId",
          "type": "uint256"
        },
        {
          "internalType": "string",
          "name": "_city",
          "type": "string"
        },
        {
          "internalType": "string",
          "name": "_country",
          "type": "string"
        },
        {
          "internalType": "string",
          "name": "_image",
          "type": "string"
        },
        {
          "internalType": "uint256",
          "name": "_price",
          "type": "uint256"
        }
      ],
      "name": "makeItem",
      "outputs": [],
      "stateMutability": "nonpayable",
      "type": "function"
    },
    {
      "inputs": [
        {
          "internalType": "address",
          "name": "to",
          "type": "address"
        },
        {
          "internalType": "uint256",
          "name": "id",
          "type": "uint256"
        },
        {
          "internalType": "uint256",
          "name": "amount",
          "type": "uint256"
        }
      ],
      "name": "mint",
      "outputs": [],
      "stateMutability": "nonpayable",
      "type": "function"
    },
    {
      "inputs": [
        {
          "internalType": "address",
          "name": "to",
          "type": "address"
        },
        {
          "internalType": "uint256[]",
          "name": "ids",
          "type": "uint256[]"
        },
        {
          "internalType": "uint256[]",
          "name": "amounts",
          "type": "uint256[]"
        }
      ],
      "name": "mintBatch",
      "outputs": [],
      "stateMutability": "nonpayable",
      "type": "function"
    },
    {
      "inputs": [],
      "name": "name",
      "outputs": [
        {
          "internalType": "string",
          "name": "",
          "type": "string"
        }
      ],
      "stateMutability": "view",
      "type": "function"
    },
    {
      "inputs": [
        {
          "internalType": "address",
          "name": "",
          "type": "address"
        },
        {
          "internalType": "address",
          "name": "",
          "type": "address"
        },
        {
          "internalType": "uint256[]",
          "name": "",
          "type": "uint256[]"
        },
        {
          "internalType": "uint256[]",
          "name": "",
          "type": "uint256[]"
        },
        {
          "internalType": "bytes",
          "name": "",
          "type": "bytes"
        }
      ],
      "name": "onERC1155BatchReceived",
      "outputs": [
        {
          "internalType": "bytes4",
          "name": "",
          "type": "bytes4"
        }
      ],
      "stateMutability": "nonpayable",
      "type": "function"
    },
    {
      "inputs": [
        {
          "internalType": "address",
          "name": "",
          "type": "address"
        },
        {
          "internalType": "address",
          "name": "",
          "type": "address"
        },
        {
          "internalType": "uint256",
          "name": "",
          "type": "uint256"
        },
        {
          "internalType": "uint256",
          "name": "",
          "type": "uint256"
        },
        {
          "internalType": "bytes",
          "name": "",
          "type": "bytes"
        }
      ],
      "name": "onERC1155Received",
      "outputs": [
        {
          "internalType": "bytes4",
          "name": "",
          "type": "bytes4"
        }
      ],
      "stateMutability": "nonpayable",
      "type": "function"
    },
    {
      "inputs": [],
      "name": "owner",
      "outputs": [
        {
          "internalType": "address",
          "name": "",
          "type": "address"
        }
      ],
      "stateMutability": "view",
      "type": "function"
    },
    {
      "inputs": [
        {
          "internalType": "uint256",
          "name": "_itemId",
          "type": "uint256"
        }
      ],
      "name": "purchaseItem",
      "outputs": [],
      "stateMutability": "payable",
      "type": "function"
    },
    {
      "inputs": [],
      "name": "renounceOwnership",
      "outputs": [],
      "stateMutability": "nonpayable",
      "type": "function"
    },
    {
      "inputs": [
        {
          "internalType": "address",
          "name": "from",
          "type": "address"
        },
        {
          "internalType": "address",
          "name": "to",
          "type": "address"
        },
        {
          "internalType": "uint256[]",
          "name": "ids",
          "type": "uint256[]"
        },
        {
          "internalType": "uint256[]",
          "name": "amounts",
          "type": "uint256[]"
        },
        {
          "internalType": "bytes",
          "name": "data",
          "type": "bytes"
        }
      ],
      "name": "safeBatchTransferFrom",
      "outputs": [],
      "stateMutability": "nonpayable",
      "type": "function"
    },
    {
      "inputs": [
        {
          "internalType": "address",
          "name": "from",
          "type": "address"
        },
        {
          "internalType": "address",
          "name": "to",
          "type": "address"
        },
        {
          "internalType": "uint256",
          "name": "id",
          "type": "uint256"
        },
        {
          "internalType": "uint256",
          "name": "amount",
          "type": "uint256"
        },
        {
          "internalType": "bytes",
          "name": "data",
          "type": "bytes"
        }
      ],
      "name": "safeTransferFrom",
      "outputs": [],
      "stateMutability": "nonpayable",
      "type": "function"
    },
    {
      "inputs": [
        {
          "internalType": "address",
          "name": "operator",
          "type": "address"
        },
        {
          "internalType": "bool",
          "name": "approved",
          "type": "bool"
        }
      ],
      "name": "setApprovalForAll",
      "outputs": [],
      "stateMutability": "nonpayable",
      "type": "function"
    },
    {
      "inputs": [
        {
          "internalType": "string",
          "name": "newuri",
          "type": "string"
        }
      ],
      "name": "setURI",
      "outputs": [],
      "stateMutability": "nonpayable",
      "type": "function"
    },
    {
      "inputs": [
        {
          "internalType": "bytes4",
          "name": "interfaceId",
          "type": "bytes4"
        }
      ],
      "name": "supportsInterface",
      "outputs": [
        {
          "internalType": "bool",
          "name": "",
          "type": "bool"
        }
      ],
      "stateMutability": "view",
      "type": "function"
    },
    {
      "inputs": [],
      "name": "symbol",
      "outputs": [
        {
          "internalType": "string",
          "name": "",
          "type": "string"
        }
      ],
      "stateMutability": "view",
      "type": "function"
    },
    {
      "inputs": [
        {
          "internalType": "address",
          "name": "newOwner",
          "type": "address"
        }
      ],
      "name": "transferOwnership",
      "outputs": [],
      "stateMutability": "nonpayable",
      "type": "function"
    },
    {
      "inputs": [
        {
          "internalType": "uint256",
          "name": "tokenId",
          "type": "uint256"
        }
      ],
      "name": "uri",
      "outputs": [
        {
          "internalType": "string",
          "name": "",
          "type": "string"
        }
      ],
      "stateMutability": "pure",
      "type": "function"
    }
  ],
  "bytecode": "0x60806040523480156200001157600080fd5b5060408051602081019091526000808252600190556200003181620000a2565b506200003d33620000bb565b604080518082019091526007808252662a3937ba3a32b960c91b60209092019182526200006d916005916200010d565b50604080518082019091526004808252632a292a2960e11b60209092019182526200009b916006916200010d565b50620001f0565b8051620000b79060039060208401906200010d565b5050565b600480546001600160a01b038381166001600160a01b0319831681179093556040519116919082907f8be0079c531659141344cd1fd0a4f28419497f9722a3daafe3b4186f6b6457e090600090a35050565b8280546200011b90620001b3565b90600052602060002090601f0160209004810192826200013f57600085556200018a565b82601f106200015a57805160ff19168380011785556200018a565b828001600101855582156200018a579182015b828111156200018a5782518255916020019190600101906200016d565b50620001989291506200019c565b5090565b5b808211156200019857600081556001016200019d565b600181811c90821680620001c857607f821691505b60208210811415620001ea57634e487b7160e01b600052602260045260246000fd5b50919050565b612c6680620002006000396000f3fe6080604052600436106101655760003560e01c80638da5cb5b116100d1578063d81d0a151161008a578063f23a6e6111610064578063f23a6e611461048d578063f242432a146104b9578063f2fde38b146104d9578063f5298aca146104f957600080fd5b8063d81d0a15146103f4578063e757223014610414578063e985e9c51461044457600080fd5b80638da5cb5b1461030957806395d89b4114610331578063a22cb46514610346578063bc197c8114610366578063bfb231d2146103ab578063d38ea5bf146103e157600080fd5b80632eb2c2d6116101235780632eb2c2d61461025157806336f606c6146102715780634e1273f4146102915780636b20c454146102be5780636bfb0d01146102de578063715018a6146102f457600080fd5b8062fdd58e1461016a57806301ffc9a71461019d57806302fe5305146101cd57806306fdde03146101ef5780630e89341c14610211578063156e29f614610231575b600080fd5b34801561017657600080fd5b5061018a6101853660046122bd565b610519565b6040519081526020015b60405180910390f35b3480156101a957600080fd5b506101bd6101b83660046123e9565b6105b2565b6040519015158152602001610194565b3480156101d957600080fd5b506101ed6101e83660046124ca565b6105c3565b005b3480156101fb57600080fd5b506102046105f9565b60405161019491906126f4565b34801561021d57600080fd5b5061020461022c3660046124fd565b610687565b34801561023d57600080fd5b506101ed61024c3660046122e8565b6106b8565b34801561025d57600080fd5b506101ed61026c366004612108565b610702565b34801561027d57600080fd5b506101ed61028c366004612421565b610799565b34801561029d57600080fd5b506102b16102ac36600461231c565b6109d9565b60405161019491906126b3565b3480156102ca57600080fd5b506101ed6102d9366004612219565b610b3b565b3480156102ea57600080fd5b5061018a60075481565b34801561030057600080fd5b506101ed610b7e565b34801561031557600080fd5b506004546040516001600160a01b039091168152602001610194565b34801561033d57600080fd5b50610204610bb4565b34801561035257600080fd5b506101ed61036136600461228c565b610bc1565b34801561037257600080fd5b50610392610381366004612108565b63bc197c8160e01b95945050505050565b6040516001600160e01b03199091168152602001610194565b3480156103b757600080fd5b506103cb6103c63660046124fd565b610bd0565b6040516101949a9998979695949392919061296c565b6101ed6103ef3660046124fd565b610dd5565b34801561040057600080fd5b506101ed61040f366004612219565b611082565b34801561042057600080fd5b5061018a61042f3660046124fd565b60009081526008602052604090206006015490565b34801561045057600080fd5b506101bd61045f3660046120d0565b6001600160a01b03918216600090815260026020908152604080832093909416825291909152205460ff1690565b34801561049957600080fd5b506103926104a83660046121b2565b63f23a6e6160e01b95945050505050565b3480156104c557600080fd5b506101ed6104d43660046121b2565b6110c7565b3480156104e557600080fd5b506101ed6104f43660046120ad565b61110c565b34801561050557600080fd5b506101ed6105143660046122e8565b6111a4565b60006001600160a01b03831661058a5760405162461bcd60e51b815260206004820152602b60248201527f455243313135353a2062616c616e636520717565727920666f7220746865207a60448201526a65726f206164647265737360a81b60648201526084015b60405180910390fd5b5060009081526001602090815260408083206001600160a01b03949094168352929052205490565b60006105bd826111e7565b92915050565b6004546001600160a01b031633146105ed5760405162461bcd60e51b8152600401610581906128ae565b6105f681611227565b50565b6005805461060690612a8a565b80601f016020809104026020016040519081016040528092919081815260200182805461063290612a8a565b801561067f5780601f106106545761010080835404028352916020019161067f565b820191906000526020600020905b81548152906001019060200180831161066257829003601f168201915b505050505081565b60606106928261123a565b6040516020016106a2919061257b565b6040516020818303038152906040529050919050565b6004546001600160a01b031633146106e25760405162461bcd60e51b8152600401610581906128ae565b6106fd8383836040518060200160405280600081525061135c565b505050565b6001600160a01b03851633148061071e575061071e853361045f565b6107855760405162461bcd60e51b815260206004820152603260248201527f455243313135353a207472616e736665722063616c6c6572206973206e6f74206044820152711bdddb995c881b9bdc88185c1c1c9bdd995960721b6064820152608401610581565b6107928585858585611438565b5050505050565b6004546001600160a01b031633146107c35760405162461bcd60e51b8152600401610581906128ae565b600081116108135760405162461bcd60e51b815260206004820152601f60248201527f5072696365206d7573742062652067726561746572207468616e207a65726f006044820152606401610581565b6007805490600061082383612af2565b9091555050604051637921219560e11b81526001600160a01b0387169063f242432a9061085b90339030908a90600190600401612636565b600060405180830381600087803b15801561087557600080fd5b505af1158015610889573d6000803e3d6000fd5b505060408051610140810182526007548082526001600160a01b038b811660208085019182528486018d8152606086018d8152608087018d905260a087018c905260c087018b90523360e088018190526101008801526000610120880181905295865260088352969094208551815591516001830180546001600160a01b03191691909416179092559151600283015592518051929550909350610934926003850192910190611f31565b5060808201518051610950916004840191602090910190611f31565b5060a0820151805161096c916005840191602090910190611f31565b5060c0820151600682015560e08201516007820180546001600160a01b0319166001600160a01b039283161790556101008301516008909201805461012090940151929091166001600160a81b031990931692909217600160a01b91151591909102179055505050505050565b60608151835114610a3e5760405162461bcd60e51b815260206004820152602960248201527f455243313135353a206163636f756e747320616e6420696473206c656e677468604482015268040dad2e6dac2e8c6d60bb1b6064820152608401610581565b6000835167ffffffffffffffff811115610a6857634e487b7160e01b600052604160045260246000fd5b604051908082528060200260200182016040528015610a91578160200160208202803683370190505b50905060005b8451811015610b3357610af8858281518110610ac357634e487b7160e01b600052603260045260246000fd5b6020026020010151858381518110610aeb57634e487b7160e01b600052603260045260246000fd5b6020026020010151610519565b828281518110610b1857634e487b7160e01b600052603260045260246000fd5b6020908102919091010152610b2c81612af2565b9050610a97565b509392505050565b6001600160a01b038316331480610b575750610b57833361045f565b610b735760405162461bcd60e51b815260040161058190612793565b6106fd8383836115f3565b6004546001600160a01b03163314610ba85760405162461bcd60e51b8152600401610581906128ae565b610bb2600061179e565b565b6006805461060690612a8a565b610bcc3383836117f0565b5050565b600860205260009081526040902080546001820154600283015460038401805493946001600160a01b0390931693919291610c0a90612a8a565b80601f0160208091040260200160405190810160405280929190818152602001828054610c3690612a8a565b8015610c835780601f10610c5857610100808354040283529160200191610c83565b820191906000526020600020905b815481529060010190602001808311610c6657829003601f168201915b505050505090806004018054610c9890612a8a565b80601f0160208091040260200160405190810160405280929190818152602001828054610cc490612a8a565b8015610d115780601f10610ce657610100808354040283529160200191610d11565b820191906000526020600020905b815481529060010190602001808311610cf457829003601f168201915b505050505090806005018054610d2690612a8a565b80601f0160208091040260200160405190810160405280929190818152602001828054610d5290612a8a565b8015610d9f5780601f10610d7457610100808354040283529160200191610d9f565b820191906000526020600020905b815481529060010190602001808311610d8257829003601f168201915b5050505060068301546007840154600890940154929390926001600160a01b03918216925090811690600160a01b900460ff168a565b60026000541415610e285760405162461bcd60e51b815260206004820152601f60248201527f5265656e7472616e637947756172643a207265656e7472616e742063616c6c006044820152606401610581565b600260009081558181526008602052604090208115801590610e4c57506007548211155b610e8d5760405162461bcd60e51b81526020600482015260126024820152711a5d195b48191bd95cdb89dd08195e1a5cdd60721b6044820152606401610581565b8060060154341015610eed5760405162461bcd60e51b8152602060048201526024808201527f6e6f7420656e6f75676820657468657220746f20636f766572206974656d20706044820152637269636560e01b6064820152608401610581565b6008810154600160a01b900460ff1615610f3d5760405162461bcd60e51b81526020600482015260116024820152701a5d195b48185b1c9958591e481cdbdb19607a1b6044820152606401610581565b600781015460068201546040516001600160a01b039092169181156108fc0291906000818181858888f19350505050158015610f7d573d6000803e3d6000fd5b5060088101805460ff60a01b1916600160a01b1790556001818101546002830154604051637921219560e11b81526001600160a01b039092169263f242432a92610fcd9230923392600401612636565b600060405180830381600087803b158015610fe757600080fd5b505af1158015610ffb573d6000803e3d6000fd5b505050506008810180546001600160a01b0319163390811790915560078201546001830154600284015460068501546040805188815260208101939093528201526001600160a01b0392831692909116907f8b4c9c8a607d67b321582dd8461041b1dc2ceeca70c8b7f37f8e02095cf2e76d9060600160405180910390a450506001600055565b6004546001600160a01b031633146110ac5760405162461bcd60e51b8152600401610581906128ae565b6106fd838383604051806020016040528060008152506118d1565b6001600160a01b0385163314806110e357506110e3853361045f565b6110ff5760405162461bcd60e51b815260040161058190612793565b6107928585858585611a39565b6004546001600160a01b031633146111365760405162461bcd60e51b8152600401610581906128ae565b6001600160a01b03811661119b5760405162461bcd60e51b815260206004820152602660248201527f4f776e61626c653a206e6577206f776e657220697320746865207a65726f206160448201526564647265737360d01b6064820152608401610581565b6105f68161179e565b6001600160a01b0383163314806111c057506111c0833361045f565b6111dc5760405162461bcd60e51b815260040161058190612793565b6106fd838383611b67565b60006001600160e01b03198216636cdb3d1360e11b148061121857506001600160e01b031982166303a24d0760e21b145b806105bd57506105bd82611c6e565b8051610bcc906003906020840190611f31565b60608161125e5750506040805180820190915260018152600360fc1b602082015290565b8160005b8115611288578061127281612af2565b91506112819050600a83612a33565b9150611262565b60008167ffffffffffffffff8111156112b157634e487b7160e01b600052604160045260246000fd5b6040519080825280601f01601f1916602001820160405280156112db576020820181803683370190505b5090505b8415611354576112f0600183612a47565b91506112fd600a86612b0d565b611308906030612a1b565b60f81b81838151811061132b57634e487b7160e01b600052603260045260246000fd5b60200101906001600160f81b031916908160001a90535061134d600a86612a33565b94506112df565b949350505050565b6001600160a01b0384166113825760405162461bcd60e51b81526004016105819061292b565b33600061138e85611ca3565b9050600061139b85611ca3565b905060008681526001602090815260408083206001600160a01b038b168452909152812080548792906113cf908490612a1b565b909155505060408051878152602081018790526001600160a01b03808a1692600092918716917fc3d58168c5ae7397731d063d5bbf3d657854427343f4c083240f7aacaa2d0f62910160405180910390a461142f83600089898989611cfc565b50505050505050565b81518351146114595760405162461bcd60e51b8152600401610581906128e3565b6001600160a01b03841661147f5760405162461bcd60e51b8152600401610581906127dc565b3360005b84518110156115855760008582815181106114ae57634e487b7160e01b600052603260045260246000fd5b6020026020010151905060008583815181106114da57634e487b7160e01b600052603260045260246000fd5b60209081029190910181015160008481526001835260408082206001600160a01b038e16835290935291909120549091508181101561152b5760405162461bcd60e51b815260040161058190612864565b60008381526001602090815260408083206001600160a01b038e8116855292528083208585039055908b1682528120805484929061156a908490612a1b565b925050819055505050508061157e90612af2565b9050611483565b50846001600160a01b0316866001600160a01b0316826001600160a01b03167f4a39dc06d4c0dbc64b70af90fd698a233a518aa5d07e595d983b8c0526c8f7fb87876040516115d59291906126c6565b60405180910390a46115eb818787878787611e67565b505050505050565b6001600160a01b0383166116195760405162461bcd60e51b815260040161058190612821565b805182511461163a5760405162461bcd60e51b8152600401610581906128e3565b604080516020810190915260009081905233905b835181101561172f57600084828151811061167957634e487b7160e01b600052603260045260246000fd5b6020026020010151905060008483815181106116a557634e487b7160e01b600052603260045260246000fd5b60209081029190910181015160008481526001835260408082206001600160a01b038c1683529093529190912054909150818110156116f65760405162461bcd60e51b81526004016105819061274f565b60009283526001602090815260408085206001600160a01b038b168652909152909220910390558061172781612af2565b91505061164e565b5060006001600160a01b0316846001600160a01b0316826001600160a01b03167f4a39dc06d4c0dbc64b70af90fd698a233a518aa5d07e595d983b8c0526c8f7fb86866040516117809291906126c6565b60405180910390a46040805160208101909152600090525b50505050565b600480546001600160a01b038381166001600160a01b0319831681179093556040519116919082907f8be0079c531659141344cd1fd0a4f28419497f9722a3daafe3b4186f6b6457e090600090a35050565b816001600160a01b0316836001600160a01b031614156118645760405162461bcd60e51b815260206004820152602960248201527f455243313135353a2073657474696e6720617070726f76616c20737461747573604482015268103337b91039b2b63360b91b6064820152608401610581565b6001600160a01b03838116600081815260026020908152604080832094871680845294825291829020805460ff191686151590811790915591519182527f17307eab39ab6107e8899845ad3d59bd9653f200f220920489ca2b5937696c31910160405180910390a3505050565b6001600160a01b0384166118f75760405162461bcd60e51b81526004016105819061292b565b81518351146119185760405162461bcd60e51b8152600401610581906128e3565b3360005b84518110156119d15783818151811061194557634e487b7160e01b600052603260045260246000fd5b60200260200101516001600087848151811061197157634e487b7160e01b600052603260045260246000fd5b602002602001015181526020019081526020016000206000886001600160a01b03166001600160a01b0316815260200190815260200160002060008282546119b99190612a1b565b909155508190506119c981612af2565b91505061191c565b50846001600160a01b031660006001600160a01b0316826001600160a01b03167f4a39dc06d4c0dbc64b70af90fd698a233a518aa5d07e595d983b8c0526c8f7fb8787604051611a229291906126c6565b60405180910390a461079281600087878787611e67565b6001600160a01b038416611a5f5760405162461bcd60e51b8152600401610581906127dc565b336000611a6b85611ca3565b90506000611a7885611ca3565b905060008681526001602090815260408083206001600160a01b038c16845290915290205485811015611abd5760405162461bcd60e51b815260040161058190612864565b60008781526001602090815260408083206001600160a01b038d8116855292528083208985039055908a16825281208054889290611afc908490612a1b565b909155505060408051888152602081018890526001600160a01b03808b16928c821692918816917fc3d58168c5ae7397731d063d5bbf3d657854427343f4c083240f7aacaa2d0f62910160405180910390a4611b5c848a8a8a8a8a611cfc565b505050505050505050565b6001600160a01b038316611b8d5760405162461bcd60e51b815260040161058190612821565b336000611b9984611ca3565b90506000611ba684611ca3565b6040805160208082018352600091829052888252600181528282206001600160a01b038b1683529052205490915084811015611bf45760405162461bcd60e51b81526004016105819061274f565b60008681526001602090815260408083206001600160a01b038b81168086529184528285208a8703905582518b81529384018a90529092908816917fc3d58168c5ae7397731d063d5bbf3d657854427343f4c083240f7aacaa2d0f62910160405180910390a460408051602081019091526000905261142f565b60006001600160e01b03198216630271189760e51b14806105bd57506301ffc9a760e01b6001600160e01b03198316146105bd565b60408051600180825281830190925260609160009190602080830190803683370190505090508281600081518110611ceb57634e487b7160e01b600052603260045260246000fd5b602090810291909101015292915050565b6001600160a01b0384163b156115eb5760405163f23a6e6160e01b81526001600160a01b0385169063f23a6e6190611d40908990899088908890889060040161266e565b602060405180830381600087803b158015611d5a57600080fd5b505af1925050508015611d8a575060408051601f3d908101601f19168201909252611d8791810190612405565b60015b611e3757611d96612b63565b806308c379a01415611dd05750611dab612b7b565b80611db65750611dd2565b8060405162461bcd60e51b815260040161058191906126f4565b505b60405162461bcd60e51b815260206004820152603460248201527f455243313135353a207472616e7366657220746f206e6f6e20455243313135356044820152732932b1b2b4bb32b91034b6b83632b6b2b73a32b960611b6064820152608401610581565b6001600160e01b0319811663f23a6e6160e01b1461142f5760405162461bcd60e51b815260040161058190612707565b6001600160a01b0384163b156115eb5760405163bc197c8160e01b81526001600160a01b0385169063bc197c8190611eab90899089908890889088906004016125d8565b602060405180830381600087803b158015611ec557600080fd5b505af1925050508015611ef5575060408051601f3d908101601f19168201909252611ef291810190612405565b60015b611f0157611d96612b63565b6001600160e01b0319811663bc197c8160e01b1461142f5760405162461bcd60e51b815260040161058190612707565b828054611f3d90612a8a565b90600052602060002090601f016020900481019282611f5f5760008555611fa5565b82601f10611f7857805160ff1916838001178555611fa5565b82800160010185558215611fa5579182015b82811115611fa5578251825591602001919060010190611f8a565b50611fb1929150611fb5565b5090565b5b80821115611fb15760008155600101611fb6565b600082601f830112611fda578081fd5b81356020611fe7826129f7565b604051611ff48282612ac5565b8381528281019150858301600585901b87018401881015612013578586fd5b855b8581101561203157813584529284019290840190600101612015565b5090979650505050505050565b600082601f83011261204e578081fd5b813567ffffffffffffffff81111561206857612068612b4d565b60405161207f601f8301601f191660200182612ac5565b818152846020838601011115612093578283fd5b816020850160208301379081016020019190915292915050565b6000602082840312156120be578081fd5b81356120c981612c05565b9392505050565b600080604083850312156120e2578081fd5b82356120ed81612c05565b915060208301356120fd81612c05565b809150509250929050565b600080600080600060a0868803121561211f578081fd5b853561212a81612c05565b9450602086013561213a81612c05565b9350604086013567ffffffffffffffff80821115612156578283fd5b61216289838a01611fca565b94506060880135915080821115612177578283fd5b61218389838a01611fca565b93506080880135915080821115612198578283fd5b506121a58882890161203e565b9150509295509295909350565b600080600080600060a086880312156121c9578081fd5b85356121d481612c05565b945060208601356121e481612c05565b93506040860135925060608601359150608086013567ffffffffffffffff81111561220d578182fd5b6121a58882890161203e565b60008060006060848603121561222d578283fd5b833561223881612c05565b9250602084013567ffffffffffffffff80821115612254578384fd5b61226087838801611fca565b93506040860135915080821115612275578283fd5b5061228286828701611fca565b9150509250925092565b6000806040838503121561229e578182fd5b82356122a981612c05565b9150602083013580151581146120fd578182fd5b600080604083850312156122cf578182fd5b82356122da81612c05565b946020939093013593505050565b6000806000606084860312156122fc578081fd5b833561230781612c05565b95602085013595506040909401359392505050565b6000806040838503121561232e578182fd5b823567ffffffffffffffff80821115612345578384fd5b818501915085601f830112612358578384fd5b81356020612365826129f7565b6040516123728282612ac5565b8381528281019150858301600585901b870184018b1015612391578889fd5b8896505b848710156123bc5780356123a881612c05565b835260019690960195918301918301612395565b50965050860135925050808211156123d2578283fd5b506123df85828601611fca565b9150509250929050565b6000602082840312156123fa578081fd5b81356120c981612c1a565b600060208284031215612416578081fd5b81516120c981612c1a565b60008060008060008060c08789031215612439578384fd5b863561244481612c05565b955060208701359450604087013567ffffffffffffffff80821115612467578586fd5b6124738a838b0161203e565b95506060890135915080821115612488578283fd5b6124948a838b0161203e565b945060808901359150808211156124a9578283fd5b506124b689828a0161203e565b92505060a087013590509295509295509295565b6000602082840312156124db578081fd5b813567ffffffffffffffff8111156124f1578182fd5b6113548482850161203e565b60006020828403121561250e578081fd5b5035919050565b6000815180845260208085019450808401835b8381101561254457815187529582019590820190600101612528565b509495945050505050565b60008151808452612567816020860160208601612a5e565b601f01601f19169290920160200192915050565b7f516d5275464e6570536b6a535651504542666e4b526a634d634532363332343381526e4c4877744a4c3874656a533747782f60881b6020820152600082516125cb81602f850160208701612a5e565b91909101602f0192915050565b6001600160a01b0386811682528516602082015260a06040820181905260009061260490830186612515565b82810360608401526126168186612515565b9050828103608084015261262a818561254f565b98975050505050505050565b6001600160a01b0394851681529290931660208301526040820152606081019190915260a06080820181905260009082015260c00190565b6001600160a01b03868116825285166020820152604081018490526060810183905260a0608082018190526000906126a89083018461254f565b979650505050505050565b6020815260006120c96020830184612515565b6040815260006126d96040830185612515565b82810360208401526126eb8185612515565b95945050505050565b6020815260006120c9602083018461254f565b60208082526028908201527f455243313135353a204552433131353552656365697665722072656a656374656040820152676420746f6b656e7360c01b606082015260800190565b60208082526024908201527f455243313135353a206275726e20616d6f756e7420657863656564732062616c604082015263616e636560e01b606082015260800190565b60208082526029908201527f455243313135353a2063616c6c6572206973206e6f74206f776e6572206e6f7260408201526808185c1c1c9bdd995960ba1b606082015260800190565b60208082526025908201527f455243313135353a207472616e7366657220746f20746865207a65726f206164604082015264647265737360d81b606082015260800190565b60208082526023908201527f455243313135353a206275726e2066726f6d20746865207a65726f206164647260408201526265737360e81b606082015260800190565b6020808252602a908201527f455243313135353a20696e73756666696369656e742062616c616e636520666f60408201526939103a3930b739b332b960b11b606082015260800190565b6020808252818101527f4f776e61626c653a2063616c6c6572206973206e6f7420746865206f776e6572604082015260600190565b60208082526028908201527f455243313135353a2069647320616e6420616d6f756e7473206c656e677468206040820152670dad2e6dac2e8c6d60c31b606082015260800190565b60208082526021908201527f455243313135353a206d696e7420746f20746865207a65726f206164647265736040820152607360f81b606082015260800190565b8a81526001600160a01b038a81166020830152604082018a90526101406060830181905260009161299f8483018c61254f565b915083820360808501526129b3828b61254f565b915083820360a08501526129c7828a61254f565b60c085019890985295861660e0840152505091909216610100820152901515610120909101529695505050505050565b600067ffffffffffffffff821115612a1157612a11612b4d565b5060051b60200190565b60008219821115612a2e57612a2e612b21565b500190565b600082612a4257612a42612b37565b500490565b600082821015612a5957612a59612b21565b500390565b60005b83811015612a79578181015183820152602001612a61565b838111156117985750506000910152565b600181811c90821680612a9e57607f821691505b60208210811415612abf57634e487b7160e01b600052602260045260246000fd5b50919050565b601f8201601f1916810167ffffffffffffffff81118282101715612aeb57612aeb612b4d565b6040525050565b6000600019821415612b0657612b06612b21565b5060010190565b600082612b1c57612b1c612b37565b500690565b634e487b7160e01b600052601160045260246000fd5b634e487b7160e01b600052601260045260246000fd5b634e487b7160e01b600052604160045260246000fd5b600060033d1115612b7857600481823e5160e01c5b90565b600060443d1015612b895790565b6040516003193d81016004833e81513d67ffffffffffffffff8160248401118184111715612bb957505050505090565b8285019150815181811115612bd15750505050505090565b843d8701016020828501011115612beb5750505050505090565b612bfa60208286010187612ac5565b509095945050505050565b6001600160a01b03811681146105f657600080fd5b6001600160e01b0319811681146105f657600080fdfea26469706673582212204da4c4c66f39405729dd79be9d73b49903780f2cd5cedc2c02ab0056538fee2064736f6c63430008040033",
  "linkReferences": {},
  "deployedLinkReferences": {}
}